{
  "_format": "hh-sol-artifact-1",
  "contractName": "Exchange",
  "sourceName": "contracts/preset/Exchange.sol",
  "abi": [
    {
      "inputs": [],
      "stateMutability": "nonpayable",
      "type": "constructor"
    },
    {
      "inputs": [
        {
          "internalType": "address",
          "name": "owner",
          "type": "address"
        }
      ],
      "name": "OwnableInvalidOwner",
      "type": "error"
    },
    {
      "inputs": [
        {
          "internalType": "address",
          "name": "account",
          "type": "address"
        }
      ],
      "name": "OwnableUnauthorizedAccount",
      "type": "error"
    },
    {
      "anonymous": false,
      "inputs": [
        {
          "indexed": true,
          "internalType": "address",
          "name": "previousOwner",
          "type": "address"
        },
        {
          "indexed": true,
          "internalType": "address",
          "name": "newOwner",
          "type": "address"
        }
      ],
      "name": "OwnershipTransferred",
      "type": "event"
    },
    {
      "anonymous": false,
      "inputs": [
        {
          "indexed": false,
          "internalType": "bool",
          "name": "success",
          "type": "bool"
        }
      ],
      "name": "Swap",
      "type": "event"
    },
    {
      "inputs": [],
      "name": "owner",
      "outputs": [
        {
          "internalType": "address",
          "name": "",
          "type": "address"
        }
      ],
      "stateMutability": "view",
      "type": "function"
    },
    {
      "inputs": [],
      "name": "renounceOwnership",
      "outputs": [],
      "stateMutability": "nonpayable",
      "type": "function"
    },
    {
      "inputs": [
        {
          "components": [
            {
              "internalType": "address",
              "name": "account",
              "type": "address"
            },
            {
              "internalType": "address",
              "name": "token",
              "type": "address"
            },
            {
              "internalType": "uint256",
              "name": "tokenId",
              "type": "uint256"
            }
          ],
          "internalType": "struct Item",
          "name": "item",
          "type": "tuple"
        },
        {
          "components": [
            {
              "internalType": "address",
              "name": "account",
              "type": "address"
            },
            {
              "internalType": "address",
              "name": "token",
              "type": "address"
            },
            {
              "internalType": "uint256",
              "name": "amount",
              "type": "uint256"
            }
          ],
          "internalType": "struct Price",
          "name": "price",
          "type": "tuple"
        }
      ],
      "name": "swap",
      "outputs": [],
      "stateMutability": "nonpayable",
      "type": "function"
    },
    {
      "inputs": [
        {
          "internalType": "address",
          "name": "newOwner",
          "type": "address"
        }
      ],
      "name": "transferOwnership",
      "outputs": [],
      "stateMutability": "nonpayable",
      "type": "function"
    }
  ],
  "bytecode": "0x608060405234801561001057600080fd5b50338061003757604051631e4fbdf760e01b81526000600482015260240160405180910390fd5b61004081610046565b50610096565b600080546001600160a01b038381166001600160a01b0319831681178455604051919092169283917f8be0079c531659141344cd1fd0a4f28419497f9722a3daafe3b4186f6b6457e09190a35050565b61045c806100a56000396000f3fe608060405234801561001057600080fd5b506004361061004c5760003560e01c80634db721c714610051578063715018a6146100665780638da5cb5b1461006e578063f2fde38b1461008d575b600080fd5b61006461005f36600461039f565b6100a0565b005b610064610269565b600054604080516001600160a01b039092168252519081900360200190f35b61006461009b3660046103d4565b61027d565b6100a86102d9565b6100b860408201602083016103d4565b6001600160a01b03166323b872dd6100d360208401846103d4565b6100e060208601866103d4565b604080517fffffffff0000000000000000000000000000000000000000000000000000000060e086901b1681526001600160a01b03938416600482015292909116602483015284013560448201526064016020604051808303816000875af1158015610150573d6000803e3d6000fd5b505050506040513d601f19601f820116820180604052508101906101749190610404565b5061018560408301602084016103d4565b6001600160a01b03166323b872dd6101a060208501856103d4565b6101ad60208501856103d4565b604080517fffffffff0000000000000000000000000000000000000000000000000000000060e086901b1681526001600160a01b0393841660048201529290911660248301528501356044820152606401600060405180830381600087803b15801561021857600080fd5b505af115801561022c573d6000803e3d6000fd5b5050604051600181527fb03fbfb655f6045290732f9fb912695b690edcaff0b85b62e269669ad3fe0dfa9250602001905060405180910390a15050565b6102716102d9565b61027b600061031f565b565b6102856102d9565b6001600160a01b0381166102cd576040517f1e4fbdf7000000000000000000000000000000000000000000000000000000008152600060048201526024015b60405180910390fd5b6102d68161031f565b50565b6000546001600160a01b0316331461027b576040517f118cdaa70000000000000000000000000000000000000000000000000000000081523360048201526024016102c4565b600080546001600160a01b038381167fffffffffffffffffffffffff0000000000000000000000000000000000000000831681178455604051919092169283917f8be0079c531659141344cd1fd0a4f28419497f9722a3daafe3b4186f6b6457e09190a35050565b60006060828403121561039957600080fd5b50919050565b60008060c083850312156103b257600080fd5b6103bc8484610387565b91506103cb8460608501610387565b90509250929050565b6000602082840312156103e657600080fd5b81356001600160a01b03811681146103fd57600080fd5b9392505050565b60006020828403121561041657600080fd5b815180151581146103fd57600080fdfea26469706673582212202c7a0193b31dec0e0ab9cfa5c7423fadb44351dd9919f6123ac068775b660fcc64736f6c63430008140033",
  "linkReferences": {},
  "deployedLinkReferences": {}
}