{
  "_format": "hh-sol-artifact-1",
  "contractName": "ERC721Ownable",
  "sourceName": "contracts/preset/ERC721Ownable.sol",
  "abi": [
    {
      "inputs": [
        {
          "internalType": "string",
          "name": "name",
          "type": "string"
        },
        {
          "internalType": "string",
          "name": "symbol",
          "type": "string"
        }
      ],
      "stateMutability": "nonpayable",
      "type": "constructor"
    },
    {
      "inputs": [
        {
          "internalType": "address",
          "name": "sender",
          "type": "address"
        },
        {
          "internalType": "uint256",
          "name": "tokenId",
          "type": "uint256"
        },
        {
          "internalType": "address",
          "name": "owner",
          "type": "address"
        }
      ],
      "name": "ERC721IncorrectOwner",
      "type": "error"
    },
    {
      "inputs": [
        {
          "internalType": "address",
          "name": "operator",
          "type": "address"
        },
        {
          "internalType": "uint256",
          "name": "tokenId",
          "type": "uint256"
        }
      ],
      "name": "ERC721InsufficientApproval",
      "type": "error"
    },
    {
      "inputs": [
        {
          "internalType": "address",
          "name": "approver",
          "type": "address"
        }
      ],
      "name": "ERC721InvalidApprover",
      "type": "error"
    },
    {
      "inputs": [
        {
          "internalType": "address",
          "name": "operator",
          "type": "address"
        }
      ],
      "name": "ERC721InvalidOperator",
      "type": "error"
    },
    {
      "inputs": [
        {
          "internalType": "address",
          "name": "owner",
          "type": "address"
        }
      ],
      "name": "ERC721InvalidOwner",
      "type": "error"
    },
    {
      "inputs": [
        {
          "internalType": "address",
          "name": "receiver",
          "type": "address"
        }
      ],
      "name": "ERC721InvalidReceiver",
      "type": "error"
    },
    {
      "inputs": [
        {
          "internalType": "address",
          "name": "sender",
          "type": "address"
        }
      ],
      "name": "ERC721InvalidSender",
      "type": "error"
    },
    {
      "inputs": [
        {
          "internalType": "uint256",
          "name": "tokenId",
          "type": "uint256"
        }
      ],
      "name": "ERC721NonexistentToken",
      "type": "error"
    },
    {
      "inputs": [
        {
          "internalType": "address",
          "name": "owner",
          "type": "address"
        }
      ],
      "name": "OwnableInvalidOwner",
      "type": "error"
    },
    {
      "inputs": [
        {
          "internalType": "address",
          "name": "account",
          "type": "address"
        }
      ],
      "name": "OwnableUnauthorizedAccount",
      "type": "error"
    },
    {
      "anonymous": false,
      "inputs": [
        {
          "indexed": true,
          "internalType": "address",
          "name": "owner",
          "type": "address"
        },
        {
          "indexed": true,
          "internalType": "address",
          "name": "approved",
          "type": "address"
        },
        {
          "indexed": true,
          "internalType": "uint256",
          "name": "tokenId",
          "type": "uint256"
        }
      ],
      "name": "Approval",
      "type": "event"
    },
    {
      "anonymous": false,
      "inputs": [
        {
          "indexed": true,
          "internalType": "address",
          "name": "owner",
          "type": "address"
        },
        {
          "indexed": true,
          "internalType": "address",
          "name": "operator",
          "type": "address"
        },
        {
          "indexed": false,
          "internalType": "bool",
          "name": "approved",
          "type": "bool"
        }
      ],
      "name": "ApprovalForAll",
      "type": "event"
    },
    {
      "anonymous": false,
      "inputs": [
        {
          "indexed": true,
          "internalType": "address",
          "name": "previousOwner",
          "type": "address"
        },
        {
          "indexed": true,
          "internalType": "address",
          "name": "newOwner",
          "type": "address"
        }
      ],
      "name": "OwnershipTransferred",
      "type": "event"
    },
    {
      "anonymous": false,
      "inputs": [
        {
          "indexed": true,
          "internalType": "address",
          "name": "from",
          "type": "address"
        },
        {
          "indexed": true,
          "internalType": "address",
          "name": "to",
          "type": "address"
        },
        {
          "indexed": true,
          "internalType": "uint256",
          "name": "tokenId",
          "type": "uint256"
        }
      ],
      "name": "Transfer",
      "type": "event"
    },
    {
      "inputs": [
        {
          "internalType": "address",
          "name": "to",
          "type": "address"
        },
        {
          "internalType": "uint256",
          "name": "tokenId",
          "type": "uint256"
        }
      ],
      "name": "approve",
      "outputs": [],
      "stateMutability": "nonpayable",
      "type": "function"
    },
    {
      "inputs": [
        {
          "internalType": "address",
          "name": "owner",
          "type": "address"
        }
      ],
      "name": "balanceOf",
      "outputs": [
        {
          "internalType": "uint256",
          "name": "",
          "type": "uint256"
        }
      ],
      "stateMutability": "view",
      "type": "function"
    },
    {
      "inputs": [
        {
          "internalType": "uint256",
          "name": "tokenId",
          "type": "uint256"
        }
      ],
      "name": "getApproved",
      "outputs": [
        {
          "internalType": "address",
          "name": "",
          "type": "address"
        }
      ],
      "stateMutability": "view",
      "type": "function"
    },
    {
      "inputs": [
        {
          "internalType": "address",
          "name": "owner",
          "type": "address"
        },
        {
          "internalType": "address",
          "name": "operator",
          "type": "address"
        }
      ],
      "name": "isApprovedForAll",
      "outputs": [
        {
          "internalType": "bool",
          "name": "",
          "type": "bool"
        }
      ],
      "stateMutability": "view",
      "type": "function"
    },
    {
      "inputs": [
        {
          "internalType": "address",
          "name": "to",
          "type": "address"
        },
        {
          "internalType": "uint256",
          "name": "tokenId",
          "type": "uint256"
        }
      ],
      "name": "mint",
      "outputs": [],
      "stateMutability": "nonpayable",
      "type": "function"
    },
    {
      "inputs": [],
      "name": "name",
      "outputs": [
        {
          "internalType": "string",
          "name": "",
          "type": "string"
        }
      ],
      "stateMutability": "view",
      "type": "function"
    },
    {
      "inputs": [],
      "name": "owner",
      "outputs": [
        {
          "internalType": "address",
          "name": "",
          "type": "address"
        }
      ],
      "stateMutability": "view",
      "type": "function"
    },
    {
      "inputs": [
        {
          "internalType": "uint256",
          "name": "tokenId",
          "type": "uint256"
        }
      ],
      "name": "ownerOf",
      "outputs": [
        {
          "internalType": "address",
          "name": "",
          "type": "address"
        }
      ],
      "stateMutability": "view",
      "type": "function"
    },
    {
      "inputs": [],
      "name": "renounceOwnership",
      "outputs": [],
      "stateMutability": "nonpayable",
      "type": "function"
    },
    {
      "inputs": [
        {
          "internalType": "address",
          "name": "from",
          "type": "address"
        },
        {
          "internalType": "address",
          "name": "to",
          "type": "address"
        },
        {
          "internalType": "uint256",
          "name": "tokenId",
          "type": "uint256"
        }
      ],
      "name": "safeTransferFrom",
      "outputs": [],
      "stateMutability": "nonpayable",
      "type": "function"
    },
    {
      "inputs": [
        {
          "internalType": "address",
          "name": "from",
          "type": "address"
        },
        {
          "internalType": "address",
          "name": "to",
          "type": "address"
        },
        {
          "internalType": "uint256",
          "name": "tokenId",
          "type": "uint256"
        },
        {
          "internalType": "bytes",
          "name": "data",
          "type": "bytes"
        }
      ],
      "name": "safeTransferFrom",
      "outputs": [],
      "stateMutability": "nonpayable",
      "type": "function"
    },
    {
      "inputs": [
        {
          "internalType": "address",
          "name": "operator",
          "type": "address"
        },
        {
          "internalType": "bool",
          "name": "approved",
          "type": "bool"
        }
      ],
      "name": "setApprovalForAll",
      "outputs": [],
      "stateMutability": "nonpayable",
      "type": "function"
    },
    {
      "inputs": [
        {
          "internalType": "bytes4",
          "name": "interfaceId",
          "type": "bytes4"
        }
      ],
      "name": "supportsInterface",
      "outputs": [
        {
          "internalType": "bool",
          "name": "",
          "type": "bool"
        }
      ],
      "stateMutability": "view",
      "type": "function"
    },
    {
      "inputs": [],
      "name": "symbol",
      "outputs": [
        {
          "internalType": "string",
          "name": "",
          "type": "string"
        }
      ],
      "stateMutability": "view",
      "type": "function"
    },
    {
      "inputs": [
        {
          "internalType": "uint256",
          "name": "tokenId",
          "type": "uint256"
        }
      ],
      "name": "tokenURI",
      "outputs": [
        {
          "internalType": "string",
          "name": "",
          "type": "string"
        }
      ],
      "stateMutability": "view",
      "type": "function"
    },
    {
      "inputs": [
        {
          "internalType": "address",
          "name": "from",
          "type": "address"
        },
        {
          "internalType": "address",
          "name": "to",
          "type": "address"
        },
        {
          "internalType": "uint256",
          "name": "tokenId",
          "type": "uint256"
        }
      ],
      "name": "transferFrom",
      "outputs": [],
      "stateMutability": "nonpayable",
      "type": "function"
    },
    {
      "inputs": [
        {
          "internalType": "address",
          "name": "newOwner",
          "type": "address"
        }
      ],
      "name": "transferOwnership",
      "outputs": [],
      "stateMutability": "nonpayable",
      "type": "function"
    }
  ],
  "bytecode": "0x60806040523480156200001157600080fd5b50604051620015bd380380620015bd8339810160408190526200003491620001b1565b3382826000620000458382620002aa565b506001620000548282620002aa565b5050506001600160a01b0381166200008657604051631e4fbdf760e01b81526000600482015260240160405180910390fd5b62000091816200009a565b50505062000376565b600680546001600160a01b038381166001600160a01b0319831681179093556040519116919082907f8be0079c531659141344cd1fd0a4f28419497f9722a3daafe3b4186f6b6457e090600090a35050565b634e487b7160e01b600052604160045260246000fd5b600082601f8301126200011457600080fd5b81516001600160401b0380821115620001315762000131620000ec565b604051601f8301601f19908116603f011681019082821181831017156200015c576200015c620000ec565b816040528381526020925086838588010111156200017957600080fd5b600091505b838210156200019d57858201830151818301840152908201906200017e565b600093810190920192909252949350505050565b60008060408385031215620001c557600080fd5b82516001600160401b0380821115620001dd57600080fd5b620001eb8683870162000102565b935060208501519150808211156200020257600080fd5b50620002118582860162000102565b9150509250929050565b600181811c908216806200023057607f821691505b6020821081036200025157634e487b7160e01b600052602260045260246000fd5b50919050565b601f821115620002a557600081815260208120601f850160051c81016020861015620002805750805b601f850160051c820191505b81811015620002a1578281556001016200028c565b5050505b505050565b81516001600160401b03811115620002c657620002c6620000ec565b620002de81620002d784546200021b565b8462000257565b602080601f831160018114620003165760008415620002fd5750858301515b600019600386901b1c1916600185901b178555620002a1565b600085815260208120601f198616915b82811015620003475788860151825594840194600190910190840162000326565b5085821015620003665787850151600019600388901b60f8161c191681555b5050505050600190811b01905550565b61123780620003866000396000f3fe608060405234801561001057600080fd5b506004361061011b5760003560e01c806370a08231116100b2578063a22cb46511610081578063c87b56dd11610066578063c87b56dd14610251578063e985e9c514610264578063f2fde38b146102a057600080fd5b8063a22cb4651461022b578063b88d4fde1461023e57600080fd5b806370a08231146101e9578063715018a61461020a5780638da5cb5b1461021257806395d89b411461022357600080fd5b806323b872dd116100ee57806323b872dd1461019d57806340c10f19146101b057806342842e0e146101c35780636352211e146101d657600080fd5b806301ffc9a71461012057806306fdde0314610148578063081812fc1461015d578063095ea7b314610188575b600080fd5b61013361012e366004610ea8565b6102b3565b60405190151581526020015b60405180910390f35b610150610350565b60405161013f9190610f15565b61017061016b366004610f28565b6103e2565b6040516001600160a01b03909116815260200161013f565b61019b610196366004610f5d565b61040b565b005b61019b6101ab366004610f87565b61041a565b61019b6101be366004610f5d565b6104c3565b61019b6101d1366004610f87565b6104d5565b6101706101e4366004610f28565b6104f5565b6101fc6101f7366004610fc3565b610500565b60405190815260200161013f565b61019b610561565b6006546001600160a01b0316610170565b610150610575565b61019b610239366004610fde565b610584565b61019b61024c366004611030565b61058f565b61015061025f366004610f28565b6105a6565b61013361027236600461110c565b6001600160a01b03918216600090815260056020908152604080832093909416825291909152205460ff1690565b61019b6102ae366004610fc3565b61061b565b60006001600160e01b031982167f80ac58cd00000000000000000000000000000000000000000000000000000000148061031657506001600160e01b031982167f5b5e139f00000000000000000000000000000000000000000000000000000000145b8061034a57507f01ffc9a7000000000000000000000000000000000000000000000000000000006001600160e01b03198316145b92915050565b60606000805461035f9061113f565b80601f016020809104026020016040519081016040528092919081815260200182805461038b9061113f565b80156103d85780601f106103ad576101008083540402835291602001916103d8565b820191906000526020600020905b8154815290600101906020018083116103bb57829003601f168201915b5050505050905090565b60006103ed82610672565b506000828152600460205260409020546001600160a01b031661034a565b6104168282336106ab565b5050565b6001600160a01b03821661044957604051633250574960e11b8152600060048201526024015b60405180910390fd5b60006104568383336106b8565b9050836001600160a01b0316816001600160a01b0316146104bd576040517f64283d7b0000000000000000000000000000000000000000000000000000000081526001600160a01b0380861660048301526024820184905282166044820152606401610440565b50505050565b6104cb6107be565b6104168282610804565b6104f08383836040518060200160405280600081525061058f565b505050565b600061034a82610672565b60006001600160a01b038216610545576040517f89c62b6400000000000000000000000000000000000000000000000000000000815260006004820152602401610440565b506001600160a01b031660009081526003602052604090205490565b6105696107be565b6105736000610882565b565b60606001805461035f9061113f565b6104163383836108e1565b61059a84848461041a565b6104bd84848484610999565b60606105b182610672565b5060006105c960408051602081019091526000815290565b905060008151116105e95760405180602001604052806000815250610614565b806105f384610ac2565b604051602001610604929190611179565b6040516020818303038152906040525b9392505050565b6106236107be565b6001600160a01b038116610666576040517f1e4fbdf700000000000000000000000000000000000000000000000000000000815260006004820152602401610440565b61066f81610882565b50565b6000818152600260205260408120546001600160a01b03168061034a57604051637e27328960e01b815260048101849052602401610440565b6104f08383836001610b62565b6000828152600260205260408120546001600160a01b03908116908316156106e5576106e5818486610cad565b6001600160a01b0381161561072357610702600085600080610b62565b6001600160a01b038116600090815260036020526040902080546000190190555b6001600160a01b03851615610752576001600160a01b0385166000908152600360205260409020805460010190555b600084815260026020526040808220805473ffffffffffffffffffffffffffffffffffffffff19166001600160a01b0389811691821790925591518793918516917fddf252ad1be2c89b69c2b068fc378daa952ba7f163c4a11628f55a4df523b3ef91a4949350505050565b6006546001600160a01b03163314610573576040517f118cdaa7000000000000000000000000000000000000000000000000000000008152336004820152602401610440565b6001600160a01b03821661082e57604051633250574960e11b815260006004820152602401610440565b600061083c838360006106b8565b90506001600160a01b038116156104f0576040517f73c6ac6e00000000000000000000000000000000000000000000000000000000815260006004820152602401610440565b600680546001600160a01b0383811673ffffffffffffffffffffffffffffffffffffffff19831681179093556040519116919082907f8be0079c531659141344cd1fd0a4f28419497f9722a3daafe3b4186f6b6457e090600090a35050565b6001600160a01b03821661092c576040517f5b08ba180000000000000000000000000000000000000000000000000000000081526001600160a01b0383166004820152602401610440565b6001600160a01b03838116600081815260056020908152604080832094871680845294825291829020805460ff191686151590811790915591519182527f17307eab39ab6107e8899845ad3d59bd9653f200f220920489ca2b5937696c31910160405180910390a3505050565b6001600160a01b0383163b156104bd57604051630a85bd0160e11b81526001600160a01b0384169063150b7a02906109db9033908890879087906004016111a8565b6020604051808303816000875af1925050508015610a16575060408051601f3d908101601f19168201909252610a13918101906111e4565b60015b610a7f573d808015610a44576040519150601f19603f3d011682016040523d82523d6000602084013e610a49565b606091505b508051600003610a7757604051633250574960e11b81526001600160a01b0385166004820152602401610440565b805181602001fd5b6001600160e01b03198116630a85bd0160e11b14610abb57604051633250574960e11b81526001600160a01b0385166004820152602401610440565b5050505050565b60606000610acf83610d2a565b600101905060008167ffffffffffffffff811115610aef57610aef61101a565b6040519080825280601f01601f191660200182016040528015610b19576020820181803683370190505b5090508181016020015b600019017f3031323334353637383961626364656600000000000000000000000000000000600a86061a8153600a8504945084610b2357509392505050565b8080610b7657506001600160a01b03821615155b15610c70576000610b8684610672565b90506001600160a01b03831615801590610bb25750826001600160a01b0316816001600160a01b031614155b8015610be457506001600160a01b0380821660009081526005602090815260408083209387168352929052205460ff16155b15610c26576040517fa9fbf51f0000000000000000000000000000000000000000000000000000000081526001600160a01b0384166004820152602401610440565b8115610c6e5783856001600160a01b0316826001600160a01b03167f8c5be1e5ebec7d5bd14f71427d1e84f3dd0314c0f7b2291e5b200ac8c7c3b92560405160405180910390a45b505b50506000908152600460205260409020805473ffffffffffffffffffffffffffffffffffffffff19166001600160a01b0392909216919091179055565b610cb8838383610e0c565b6104f0576001600160a01b038316610ce657604051637e27328960e01b815260048101829052602401610440565b6040517f177e802f0000000000000000000000000000000000000000000000000000000081526001600160a01b038316600482015260248101829052604401610440565b6000807a184f03e93ff9f4daa797ed6e38ed64bf6a1f0100000000000000008310610d73577a184f03e93ff9f4daa797ed6e38ed64bf6a1f010000000000000000830492506040015b6d04ee2d6d415b85acef81000000008310610d9f576d04ee2d6d415b85acef8100000000830492506020015b662386f26fc100008310610dbd57662386f26fc10000830492506010015b6305f5e1008310610dd5576305f5e100830492506008015b6127108310610de957612710830492506004015b60648310610dfb576064830492506002015b600a831061034a5760010192915050565b60006001600160a01b03831615801590610e8a5750826001600160a01b0316846001600160a01b03161480610e6657506001600160a01b0380851660009081526005602090815260408083209387168352929052205460ff165b80610e8a57506000828152600460205260409020546001600160a01b038481169116145b949350505050565b6001600160e01b03198116811461066f57600080fd5b600060208284031215610eba57600080fd5b813561061481610e92565b60005b83811015610ee0578181015183820152602001610ec8565b50506000910152565b60008151808452610f01816020860160208601610ec5565b601f01601f19169290920160200192915050565b6020815260006106146020830184610ee9565b600060208284031215610f3a57600080fd5b5035919050565b80356001600160a01b0381168114610f5857600080fd5b919050565b60008060408385031215610f7057600080fd5b610f7983610f41565b946020939093013593505050565b600080600060608486031215610f9c57600080fd5b610fa584610f41565b9250610fb360208501610f41565b9150604084013590509250925092565b600060208284031215610fd557600080fd5b61061482610f41565b60008060408385031215610ff157600080fd5b610ffa83610f41565b91506020830135801515811461100f57600080fd5b809150509250929050565b634e487b7160e01b600052604160045260246000fd5b6000806000806080858703121561104657600080fd5b61104f85610f41565b935061105d60208601610f41565b925060408501359150606085013567ffffffffffffffff8082111561108157600080fd5b818701915087601f83011261109557600080fd5b8135818111156110a7576110a761101a565b604051601f8201601f19908116603f011681019083821181831017156110cf576110cf61101a565b816040528281528a60208487010111156110e857600080fd5b82602086016020830137600060208483010152809550505050505092959194509250565b6000806040838503121561111f57600080fd5b61112883610f41565b915061113660208401610f41565b90509250929050565b600181811c9082168061115357607f821691505b60208210810361117357634e487b7160e01b600052602260045260246000fd5b50919050565b6000835161118b818460208801610ec5565b83519083019061119f818360208801610ec5565b01949350505050565b60006001600160a01b038087168352808616602084015250836040830152608060608301526111da6080830184610ee9565b9695505050505050565b6000602082840312156111f657600080fd5b815161061481610e9256fea264697066735822122093ce4f5ed3ad95a00f1be203dc4f82934e9f8ff0bfe561e8498ff2b38a14245e64736f6c63430008140033",
  "linkReferences": {},
  "deployedLinkReferences": {}
}