{
  "_format": "hh-sol-artifact-1",
  "contractName": "Exchange",
  "sourceName": "contracts/Exchange.sol",
  "abi": [
    {
      "inputs": [],
      "stateMutability": "nonpayable",
      "type": "constructor"
    },
    {
      "inputs": [
        {
          "internalType": "address",
          "name": "owner",
          "type": "address"
        }
      ],
      "name": "OwnableInvalidOwner",
      "type": "error"
    },
    {
      "inputs": [
        {
          "internalType": "address",
          "name": "account",
          "type": "address"
        }
      ],
      "name": "OwnableUnauthorizedAccount",
      "type": "error"
    },
    {
      "anonymous": false,
      "inputs": [
        {
          "indexed": true,
          "internalType": "address",
          "name": "previousOwner",
          "type": "address"
        },
        {
          "indexed": true,
          "internalType": "address",
          "name": "newOwner",
          "type": "address"
        }
      ],
      "name": "OwnershipTransferred",
      "type": "event"
    },
    {
      "anonymous": false,
      "inputs": [
        {
          "components": [
            {
              "internalType": "address",
              "name": "account",
              "type": "address"
            },
            {
              "internalType": "address",
              "name": "token",
              "type": "address"
            },
            {
              "internalType": "uint256",
              "name": "tokenId",
              "type": "uint256"
            }
          ],
          "indexed": false,
          "internalType": "struct Item",
          "name": "item",
          "type": "tuple"
        },
        {
          "components": [
            {
              "internalType": "address",
              "name": "account",
              "type": "address"
            },
            {
              "internalType": "address",
              "name": "token",
              "type": "address"
            },
            {
              "internalType": "uint256",
              "name": "amount",
              "type": "uint256"
            }
          ],
          "indexed": false,
          "internalType": "struct Price",
          "name": "price",
          "type": "tuple"
        }
      ],
      "name": "Swap",
      "type": "event"
    },
    {
      "inputs": [],
      "name": "owner",
      "outputs": [
        {
          "internalType": "address",
          "name": "",
          "type": "address"
        }
      ],
      "stateMutability": "view",
      "type": "function"
    },
    {
      "inputs": [],
      "name": "renounceOwnership",
      "outputs": [],
      "stateMutability": "nonpayable",
      "type": "function"
    },
    {
      "inputs": [
        {
          "components": [
            {
              "internalType": "address",
              "name": "account",
              "type": "address"
            },
            {
              "internalType": "address",
              "name": "token",
              "type": "address"
            },
            {
              "internalType": "uint256",
              "name": "tokenId",
              "type": "uint256"
            }
          ],
          "internalType": "struct Item",
          "name": "item",
          "type": "tuple"
        },
        {
          "components": [
            {
              "internalType": "address",
              "name": "account",
              "type": "address"
            },
            {
              "internalType": "address",
              "name": "token",
              "type": "address"
            },
            {
              "internalType": "uint256",
              "name": "amount",
              "type": "uint256"
            }
          ],
          "internalType": "struct Price",
          "name": "price",
          "type": "tuple"
        }
      ],
      "name": "swap",
      "outputs": [],
      "stateMutability": "nonpayable",
      "type": "function"
    },
    {
      "inputs": [
        {
          "internalType": "address",
          "name": "newOwner",
          "type": "address"
        }
      ],
      "name": "transferOwnership",
      "outputs": [],
      "stateMutability": "nonpayable",
      "type": "function"
    }
  ],
  "bytecode": "0x608060405234801561001057600080fd5b50338061003757604051631e4fbdf760e01b81526000600482015260240160405180910390fd5b61004081610046565b50610096565b600080546001600160a01b038381166001600160a01b0319831681178455604051919092169283917f8be0079c531659141344cd1fd0a4f28419497f9722a3daafe3b4186f6b6457e09190a35050565b6104bd806100a56000396000f3fe608060405234801561001057600080fd5b506004361061004c5760003560e01c80634db721c714610051578063715018a6146100665780638da5cb5b1461006e578063f2fde38b1461008d575b600080fd5b61006461005f3660046103a3565b6100a0565b005b61006461026d565b600054604080516001600160a01b039092168252519081900360200190f35b61006461009b3660046103f4565b610281565b6100a86102dd565b6100b860408201602083016103f4565b6001600160a01b03166323b872dd6100d360208401846103f4565b6100e060208601866103f4565b604080517fffffffff0000000000000000000000000000000000000000000000000000000060e086901b1681526001600160a01b03938416600482015292909116602483015284013560448201526064016020604051808303816000875af1158015610150573d6000803e3d6000fd5b505050506040513d601f19601f820116820180604052508101906101749190610416565b5061018560408301602084016103f4565b6001600160a01b03166323b872dd6101a060208501856103f4565b6101ad60208501856103f4565b604080517fffffffff0000000000000000000000000000000000000000000000000000000060e086901b1681526001600160a01b0393841660048201529290911660248301528501356044820152606401600060405180830381600087803b15801561021857600080fd5b505af115801561022c573d6000803e3d6000fd5b505050507ff3b9076b481e6f90328250079267bf3928dcec4938f909ef39f283615432c0f1828260405161026192919061046c565b60405180910390a15050565b6102756102dd565b61027f6000610323565b565b6102896102dd565b6001600160a01b0381166102d1576040517f1e4fbdf7000000000000000000000000000000000000000000000000000000008152600060048201526024015b60405180910390fd5b6102da81610323565b50565b6000546001600160a01b0316331461027f576040517f118cdaa70000000000000000000000000000000000000000000000000000000081523360048201526024016102c8565b600080546001600160a01b038381167fffffffffffffffffffffffff0000000000000000000000000000000000000000831681178455604051919092169283917f8be0079c531659141344cd1fd0a4f28419497f9722a3daafe3b4186f6b6457e09190a35050565b60006060828403121561039d57600080fd5b50919050565b60008060c083850312156103b657600080fd5b6103c0848461038b565b91506103cf846060850161038b565b90509250929050565b80356001600160a01b03811681146103ef57600080fd5b919050565b60006020828403121561040657600080fd5b61040f826103d8565b9392505050565b60006020828403121561042857600080fd5b8151801515811461040f57600080fd5b6001600160a01b038061044a836103d8565b1683528061045a602084016103d8565b16602084015250604090810135910152565b60c0810161047a8285610438565b61040f606083018461043856fea2646970667358221220a84b8238ca1b265607e35fcb10b297944332dec093ff8c8d2a00b085a0f65d7064736f6c63430008140033",
  "linkReferences": {},
  "deployedLinkReferences": {}
}