{
  "_format": "hh-sol-artifact-1",
  "contractName": "ERC721Simple",
  "sourceName": "contracts/ERC721/ERC721Simple.sol",
  "abi": [
    {
      "inputs": [
        {
          "internalType": "string",
          "name": "name",
          "type": "string"
        },
        {
          "internalType": "string",
          "name": "symbol",
          "type": "string"
        },
        {
          "internalType": "uint96",
          "name": "royalty",
          "type": "uint96"
        },
        {
          "internalType": "string",
          "name": "baseTokenURI",
          "type": "string"
        }
      ],
      "stateMutability": "nonpayable",
      "type": "constructor"
    },
    {
      "anonymous": false,
      "inputs": [
        {
          "indexed": true,
          "internalType": "address",
          "name": "owner",
          "type": "address"
        },
        {
          "indexed": true,
          "internalType": "address",
          "name": "approved",
          "type": "address"
        },
        {
          "indexed": true,
          "internalType": "uint256",
          "name": "tokenId",
          "type": "uint256"
        }
      ],
      "name": "Approval",
      "type": "event"
    },
    {
      "anonymous": false,
      "inputs": [
        {
          "indexed": true,
          "internalType": "address",
          "name": "owner",
          "type": "address"
        },
        {
          "indexed": true,
          "internalType": "address",
          "name": "operator",
          "type": "address"
        },
        {
          "indexed": false,
          "internalType": "bool",
          "name": "approved",
          "type": "bool"
        }
      ],
      "name": "ApprovalForAll",
      "type": "event"
    },
    {
      "anonymous": false,
      "inputs": [
        {
          "indexed": false,
          "internalType": "address",
          "name": "royaltyReceiver",
          "type": "address"
        },
        {
          "indexed": false,
          "internalType": "uint96",
          "name": "royaltyNumerator",
          "type": "uint96"
        }
      ],
      "name": "DefaultRoyaltyInfo",
      "type": "event"
    },
    {
      "anonymous": false,
      "inputs": [
        {
          "indexed": true,
          "internalType": "bytes32",
          "name": "role",
          "type": "bytes32"
        },
        {
          "indexed": true,
          "internalType": "bytes32",
          "name": "previousAdminRole",
          "type": "bytes32"
        },
        {
          "indexed": true,
          "internalType": "bytes32",
          "name": "newAdminRole",
          "type": "bytes32"
        }
      ],
      "name": "RoleAdminChanged",
      "type": "event"
    },
    {
      "anonymous": false,
      "inputs": [
        {
          "indexed": true,
          "internalType": "bytes32",
          "name": "role",
          "type": "bytes32"
        },
        {
          "indexed": true,
          "internalType": "address",
          "name": "account",
          "type": "address"
        },
        {
          "indexed": true,
          "internalType": "address",
          "name": "sender",
          "type": "address"
        }
      ],
      "name": "RoleGranted",
      "type": "event"
    },
    {
      "anonymous": false,
      "inputs": [
        {
          "indexed": true,
          "internalType": "bytes32",
          "name": "role",
          "type": "bytes32"
        },
        {
          "indexed": true,
          "internalType": "address",
          "name": "account",
          "type": "address"
        },
        {
          "indexed": true,
          "internalType": "address",
          "name": "sender",
          "type": "address"
        }
      ],
      "name": "RoleRevoked",
      "type": "event"
    },
    {
      "anonymous": false,
      "inputs": [
        {
          "indexed": false,
          "internalType": "uint256",
          "name": "tokenId",
          "type": "uint256"
        },
        {
          "indexed": false,
          "internalType": "address",
          "name": "royaltyReceiver",
          "type": "address"
        },
        {
          "indexed": false,
          "internalType": "uint96",
          "name": "royaltyNumerator",
          "type": "uint96"
        }
      ],
      "name": "TokenRoyaltyInfo",
      "type": "event"
    },
    {
      "anonymous": false,
      "inputs": [
        {
          "indexed": true,
          "internalType": "address",
          "name": "from",
          "type": "address"
        },
        {
          "indexed": true,
          "internalType": "address",
          "name": "to",
          "type": "address"
        },
        {
          "indexed": true,
          "internalType": "uint256",
          "name": "tokenId",
          "type": "uint256"
        }
      ],
      "name": "Transfer",
      "type": "event"
    },
    {
      "inputs": [],
      "name": "DEFAULT_ADMIN_ROLE",
      "outputs": [
        {
          "internalType": "bytes32",
          "name": "",
          "type": "bytes32"
        }
      ],
      "stateMutability": "view",
      "type": "function"
    },
    {
      "inputs": [],
      "name": "MINTER_ROLE",
      "outputs": [
        {
          "internalType": "bytes32",
          "name": "",
          "type": "bytes32"
        }
      ],
      "stateMutability": "view",
      "type": "function"
    },
    {
      "inputs": [
        {
          "internalType": "address",
          "name": "to",
          "type": "address"
        },
        {
          "internalType": "uint256",
          "name": "tokenId",
          "type": "uint256"
        }
      ],
      "name": "approve",
      "outputs": [],
      "stateMutability": "nonpayable",
      "type": "function"
    },
    {
      "inputs": [
        {
          "internalType": "address",
          "name": "owner",
          "type": "address"
        }
      ],
      "name": "balanceOf",
      "outputs": [
        {
          "internalType": "uint256",
          "name": "",
          "type": "uint256"
        }
      ],
      "stateMutability": "view",
      "type": "function"
    },
    {
      "inputs": [
        {
          "internalType": "uint256",
          "name": "tokenId",
          "type": "uint256"
        }
      ],
      "name": "burn",
      "outputs": [],
      "stateMutability": "nonpayable",
      "type": "function"
    },
    {
      "inputs": [
        {
          "internalType": "uint256",
          "name": "tokenId",
          "type": "uint256"
        }
      ],
      "name": "getApproved",
      "outputs": [
        {
          "internalType": "address",
          "name": "",
          "type": "address"
        }
      ],
      "stateMutability": "view",
      "type": "function"
    },
    {
      "inputs": [
        {
          "internalType": "bytes32",
          "name": "role",
          "type": "bytes32"
        }
      ],
      "name": "getRoleAdmin",
      "outputs": [
        {
          "internalType": "bytes32",
          "name": "",
          "type": "bytes32"
        }
      ],
      "stateMutability": "view",
      "type": "function"
    },
    {
      "inputs": [
        {
          "internalType": "bytes32",
          "name": "role",
          "type": "bytes32"
        },
        {
          "internalType": "address",
          "name": "account",
          "type": "address"
        }
      ],
      "name": "grantRole",
      "outputs": [],
      "stateMutability": "nonpayable",
      "type": "function"
    },
    {
      "inputs": [
        {
          "internalType": "bytes32",
          "name": "role",
          "type": "bytes32"
        },
        {
          "internalType": "address",
          "name": "account",
          "type": "address"
        }
      ],
      "name": "hasRole",
      "outputs": [
        {
          "internalType": "bool",
          "name": "",
          "type": "bool"
        }
      ],
      "stateMutability": "view",
      "type": "function"
    },
    {
      "inputs": [
        {
          "internalType": "address",
          "name": "owner",
          "type": "address"
        },
        {
          "internalType": "address",
          "name": "operator",
          "type": "address"
        }
      ],
      "name": "isApprovedForAll",
      "outputs": [
        {
          "internalType": "bool",
          "name": "",
          "type": "bool"
        }
      ],
      "stateMutability": "view",
      "type": "function"
    },
    {
      "inputs": [
        {
          "internalType": "address",
          "name": "to",
          "type": "address"
        }
      ],
      "name": "mint",
      "outputs": [],
      "stateMutability": "nonpayable",
      "type": "function"
    },
    {
      "inputs": [
        {
          "internalType": "address",
          "name": "to",
          "type": "address"
        },
        {
          "internalType": "uint256",
          "name": "templateId",
          "type": "uint256"
        }
      ],
      "name": "mintCommon",
      "outputs": [
        {
          "internalType": "uint256",
          "name": "tokenId",
          "type": "uint256"
        }
      ],
      "stateMutability": "nonpayable",
      "type": "function"
    },
    {
      "inputs": [],
      "name": "name",
      "outputs": [
        {
          "internalType": "string",
          "name": "",
          "type": "string"
        }
      ],
      "stateMutability": "view",
      "type": "function"
    },
    {
      "inputs": [
        {
          "internalType": "uint256",
          "name": "tokenId",
          "type": "uint256"
        }
      ],
      "name": "ownerOf",
      "outputs": [
        {
          "internalType": "address",
          "name": "",
          "type": "address"
        }
      ],
      "stateMutability": "view",
      "type": "function"
    },
    {
      "inputs": [
        {
          "internalType": "bytes32",
          "name": "role",
          "type": "bytes32"
        },
        {
          "internalType": "address",
          "name": "account",
          "type": "address"
        }
      ],
      "name": "renounceRole",
      "outputs": [],
      "stateMutability": "nonpayable",
      "type": "function"
    },
    {
      "inputs": [
        {
          "internalType": "bytes32",
          "name": "role",
          "type": "bytes32"
        },
        {
          "internalType": "address",
          "name": "account",
          "type": "address"
        }
      ],
      "name": "revokeRole",
      "outputs": [],
      "stateMutability": "nonpayable",
      "type": "function"
    },
    {
      "inputs": [
        {
          "internalType": "uint256",
          "name": "_tokenId",
          "type": "uint256"
        },
        {
          "internalType": "uint256",
          "name": "_salePrice",
          "type": "uint256"
        }
      ],
      "name": "royaltyInfo",
      "outputs": [
        {
          "internalType": "address",
          "name": "",
          "type": "address"
        },
        {
          "internalType": "uint256",
          "name": "",
          "type": "uint256"
        }
      ],
      "stateMutability": "view",
      "type": "function"
    },
    {
      "inputs": [
        {
          "internalType": "address",
          "name": "to",
          "type": "address"
        }
      ],
      "name": "safeMint",
      "outputs": [],
      "stateMutability": "nonpayable",
      "type": "function"
    },
    {
      "inputs": [
        {
          "internalType": "address",
          "name": "from",
          "type": "address"
        },
        {
          "internalType": "address",
          "name": "to",
          "type": "address"
        },
        {
          "internalType": "uint256",
          "name": "tokenId",
          "type": "uint256"
        }
      ],
      "name": "safeTransferFrom",
      "outputs": [],
      "stateMutability": "nonpayable",
      "type": "function"
    },
    {
      "inputs": [
        {
          "internalType": "address",
          "name": "from",
          "type": "address"
        },
        {
          "internalType": "address",
          "name": "to",
          "type": "address"
        },
        {
          "internalType": "uint256",
          "name": "tokenId",
          "type": "uint256"
        },
        {
          "internalType": "bytes",
          "name": "data",
          "type": "bytes"
        }
      ],
      "name": "safeTransferFrom",
      "outputs": [],
      "stateMutability": "nonpayable",
      "type": "function"
    },
    {
      "inputs": [
        {
          "internalType": "address",
          "name": "operator",
          "type": "address"
        },
        {
          "internalType": "bool",
          "name": "approved",
          "type": "bool"
        }
      ],
      "name": "setApprovalForAll",
      "outputs": [],
      "stateMutability": "nonpayable",
      "type": "function"
    },
    {
      "inputs": [
        {
          "internalType": "string",
          "name": "baseTokenURI",
          "type": "string"
        }
      ],
      "name": "setBaseURI",
      "outputs": [],
      "stateMutability": "nonpayable",
      "type": "function"
    },
    {
      "inputs": [
        {
          "internalType": "address",
          "name": "royaltyReceiver",
          "type": "address"
        },
        {
          "internalType": "uint96",
          "name": "royaltyNumerator",
          "type": "uint96"
        }
      ],
      "name": "setDefaultRoyalty",
      "outputs": [],
      "stateMutability": "nonpayable",
      "type": "function"
    },
    {
      "inputs": [
        {
          "internalType": "uint256",
          "name": "tokenId",
          "type": "uint256"
        },
        {
          "internalType": "address",
          "name": "royaltyReceiver",
          "type": "address"
        },
        {
          "internalType": "uint96",
          "name": "royaltyNumerator",
          "type": "uint96"
        }
      ],
      "name": "setTokenRoyalty",
      "outputs": [],
      "stateMutability": "nonpayable",
      "type": "function"
    },
    {
      "inputs": [
        {
          "internalType": "bytes4",
          "name": "interfaceId",
          "type": "bytes4"
        }
      ],
      "name": "supportsInterface",
      "outputs": [
        {
          "internalType": "bool",
          "name": "",
          "type": "bool"
        }
      ],
      "stateMutability": "view",
      "type": "function"
    },
    {
      "inputs": [],
      "name": "symbol",
      "outputs": [
        {
          "internalType": "string",
          "name": "",
          "type": "string"
        }
      ],
      "stateMutability": "view",
      "type": "function"
    },
    {
      "inputs": [
        {
          "internalType": "uint256",
          "name": "index",
          "type": "uint256"
        }
      ],
      "name": "tokenByIndex",
      "outputs": [
        {
          "internalType": "uint256",
          "name": "",
          "type": "uint256"
        }
      ],
      "stateMutability": "view",
      "type": "function"
    },
    {
      "inputs": [
        {
          "internalType": "address",
          "name": "owner",
          "type": "address"
        },
        {
          "internalType": "uint256",
          "name": "index",
          "type": "uint256"
        }
      ],
      "name": "tokenOfOwnerByIndex",
      "outputs": [
        {
          "internalType": "uint256",
          "name": "",
          "type": "uint256"
        }
      ],
      "stateMutability": "view",
      "type": "function"
    },
    {
      "inputs": [
        {
          "internalType": "uint256",
          "name": "tokenId",
          "type": "uint256"
        }
      ],
      "name": "tokenURI",
      "outputs": [
        {
          "internalType": "string",
          "name": "",
          "type": "string"
        }
      ],
      "stateMutability": "view",
      "type": "function"
    },
    {
      "inputs": [],
      "name": "totalSupply",
      "outputs": [
        {
          "internalType": "uint256",
          "name": "",
          "type": "uint256"
        }
      ],
      "stateMutability": "view",
      "type": "function"
    },
    {
      "inputs": [
        {
          "internalType": "address",
          "name": "from",
          "type": "address"
        },
        {
          "internalType": "address",
          "name": "to",
          "type": "address"
        },
        {
          "internalType": "uint256",
          "name": "tokenId",
          "type": "uint256"
        }
      ],
      "name": "transferFrom",
      "outputs": [],
      "stateMutability": "nonpayable",
      "type": "function"
    },
    {
      "stateMutability": "payable",
      "type": "receive"
    }
  ],
  "bytecode": "0x60806040523480156200001157600080fd5b50604051620030673803806200306783398101604081905262000034916200042e565b808484848282816003908051906020019062000052929190620002bb565b50805162000068906004906020840190620002bb565b506200007a91506000905033620000e8565b620000a67f9f2df0fed2c77648de5860a4cc508cd0818c85b8b8a1ab4ceeef8d981c8956a633620000e8565b620000b23382620000f8565b505050620000c681620001fd60201b60201c565b50620000de600d6200021260201b620010131760201c565b505050506200051e565b620000f482826200021b565b5050565b6127106001600160601b03821611156200016c5760405162461bcd60e51b815260206004820152602a60248201527f455243323938313a20726f79616c7479206665652077696c6c206578636565646044820152692073616c65507269636560b01b60648201526084015b60405180910390fd5b6001600160a01b038216620001c45760405162461bcd60e51b815260206004820152601960248201527f455243323938313a20696e76616c696420726563656976657200000000000000604482015260640162000163565b604080518082019091526001600160a01b039092168083526001600160601b039091166020909201829052600160a01b90910217600155565b8051620000f490600e906020840190620002bb565b80546001019055565b6000828152602081815260408083206001600160a01b038516845290915290205460ff16620000f4576000828152602081815260408083206001600160a01b03851684529091529020805460ff19166001179055620002773390565b6001600160a01b0316816001600160a01b0316837f2f8788117e7eff1d82e926ec794901d17c78024a50270940304540a733656f0d60405160405180910390a45050565b828054620002c990620004e1565b90600052602060002090601f016020900481019282620002ed576000855562000338565b82601f106200030857805160ff191683800117855562000338565b8280016001018555821562000338579182015b82811115620003385782518255916020019190600101906200031b565b50620003469291506200034a565b5090565b5b808211156200034657600081556001016200034b565b634e487b7160e01b600052604160045260246000fd5b600082601f8301126200038957600080fd5b81516001600160401b0380821115620003a657620003a662000361565b604051601f8301601f19908116603f01168101908282118183101715620003d157620003d162000361565b81604052838152602092508683858801011115620003ee57600080fd5b600091505b83821015620004125785820183015181830184015290820190620003f3565b83821115620004245760008385830101525b9695505050505050565b600080600080608085870312156200044557600080fd5b84516001600160401b03808211156200045d57600080fd5b6200046b8883890162000377565b955060208701519150808211156200048257600080fd5b620004908883890162000377565b604088015190955091506001600160601b0382168214620004b057600080fd5b606087015191935080821115620004c657600080fd5b50620004d58782880162000377565b91505092959194509250565b600181811c90821680620004f657607f821691505b602082108114156200051857634e487b7160e01b600052602260045260246000fd5b50919050565b612b39806200052e6000396000f3fe6080604052600436106101dc5760003560e01c80634f6ccce711610102578063a217fddf11610095578063d539139311610064578063d5391393146105b8578063d547741f146105ec578063e985e9c51461060c578063fdbf62211461065557600080fd5b8063a217fddf14610543578063a22cb46514610558578063b88d4fde14610578578063c87b56dd1461059857600080fd5b80636a627842116100d15780636a627842146104aa57806370a08231146104ca57806391d14854146104ea57806395d89b411461052e57600080fd5b80634f6ccce71461042a57806355f804b31461044a5780635944c7531461046a5780636352211e1461048a57600080fd5b8063248a9ca31161017a57806336568abe1161014957806336568abe146103aa57806340d097c3146103ca57806342842e0e146103ea57806342966c681461040a57600080fd5b8063248a9ca3146102fb5780632a55205a1461032b5780632f2ff15d1461036a5780632f745c591461038a57600080fd5b8063081812fc116101b6578063081812fc14610264578063095ea7b31461029c57806318160ddd146102bc57806323b872dd146102db57600080fd5b806301ffc9a7146101eb57806304634d8d1461022057806306fdde031461024257600080fd5b366101e657600080fd5b600080fd5b3480156101f757600080fd5b5061020b610206366004612499565b610675565b60405190151581526020015b60405180910390f35b34801561022c57600080fd5b5061024061023b3660046124ee565b610686565b005b34801561024e57600080fd5b506102576106ef565b6040516102179190612579565b34801561027057600080fd5b5061028461027f36600461258c565b610781565b6040516001600160a01b039091168152602001610217565b3480156102a857600080fd5b506102406102b73660046125a5565b6107a8565b3480156102c857600080fd5b50600b545b604051908152602001610217565b3480156102e757600080fd5b506102406102f63660046125cf565b6108df565b34801561030757600080fd5b506102cd61031636600461258c565b60009081526020819052604090206001015490565b34801561033757600080fd5b5061034b61034636600461260b565b610958565b604080516001600160a01b039093168352602083019190915201610217565b34801561037657600080fd5b5061024061038536600461262d565b610a13565b34801561039657600080fd5b506102cd6103a53660046125a5565b610a38565b3480156103b657600080fd5b506102406103c536600461262d565b610ae0565b3480156103d657600080fd5b506102406103e5366004612650565b610b6c565b3480156103f657600080fd5b506102406104053660046125cf565b610bb6565b34801561041657600080fd5b5061024061042536600461258c565b610bd1565b34801561043657600080fd5b506102cd61044536600461258c565b610c49565b34801561045657600080fd5b506102406104653660046126f7565b610ced565b34801561047657600080fd5b50610240610485366004612740565b610d01565b34801561049657600080fd5b506102846104a536600461258c565b610d72565b3480156104b657600080fd5b506102406104c5366004612650565b610dd7565b3480156104d657600080fd5b506102cd6104e5366004612650565b610e13565b3480156104f657600080fd5b5061020b61050536600461262d565b6000918252602082815260408084206001600160a01b0393909316845291905290205460ff1690565b34801561053a57600080fd5b50610257610ead565b34801561054f57600080fd5b506102cd600081565b34801561056457600080fd5b5061024061057336600461277c565b610ebc565b34801561058457600080fd5b506102406105933660046127b8565b610ec7565b3480156105a457600080fd5b506102576105b336600461258c565b610f46565b3480156105c457600080fd5b506102cd7f9f2df0fed2c77648de5860a4cc508cd0818c85b8b8a1ab4ceeef8d981c8956a681565b3480156105f857600080fd5b5061024061060736600461262d565b610fad565b34801561061857600080fd5b5061020b610627366004612834565b6001600160a01b03918216600090815260086020908152604080832093909416825291909152205460ff1690565b34801561066157600080fd5b506102cd6106703660046125a5565b610fd2565b60006106808261101c565b92915050565b600061069181611027565b61069b8383611031565b604080516001600160a01b03851681526bffffffffffffffffffffffff841660208201527f0e00be276219671425236169cbe1adf9f210e58048dba5536294f9423dc2bbc3910160405180910390a1505050565b6060600380546106fe9061285e565b80601f016020809104026020016040519081016040528092919081815260200182805461072a9061285e565b80156107775780601f1061074c57610100808354040283529160200191610777565b820191906000526020600020905b81548152906001019060200180831161075a57829003601f168201915b5050505050905090565b600061078c82611138565b506000908152600760205260409020546001600160a01b031690565b60006107b382610d72565b9050806001600160a01b0316836001600160a01b031614156108425760405162461bcd60e51b815260206004820152602160248201527f4552433732313a20617070726f76616c20746f2063757272656e74206f776e6560448201527f720000000000000000000000000000000000000000000000000000000000000060648201526084015b60405180910390fd5b336001600160a01b038216148061085e575061085e8133610627565b6108d05760405162461bcd60e51b815260206004820152603e60248201527f4552433732313a20617070726f76652063616c6c6572206973206e6f7420746f60448201527f6b656e206f776e6572206e6f7220617070726f76656420666f7220616c6c00006064820152608401610839565b6108da838361119c565b505050565b6108ea335b82611217565b61094d5760405162461bcd60e51b815260206004820152602e60248201527f4552433732313a2063616c6c6572206973206e6f7420746f6b656e206f776e6560448201526d1c881b9bdc88185c1c1c9bdd995960921b6064820152608401610839565b6108da838383611296565b60008281526002602090815260408083208151808301909252546001600160a01b038116808352600160a01b9091046bffffffffffffffffffffffff169282019290925282916109d75750604080518082019091526001546001600160a01b0381168252600160a01b90046bffffffffffffffffffffffff1660208201525b6020810151600090612710906109fb906bffffffffffffffffffffffff16876128af565b610a0591906128e4565b915196919550909350505050565b600082815260208190526040902060010154610a2e81611027565b6108da838361147b565b6000610a4383610e13565b8210610ab75760405162461bcd60e51b815260206004820152602b60248201527f455243373231456e756d657261626c653a206f776e657220696e646578206f7560448201527f74206f6620626f756e64730000000000000000000000000000000000000000006064820152608401610839565b506001600160a01b03919091166000908152600960209081526040808320938352929052205490565b6001600160a01b0381163314610b5e5760405162461bcd60e51b815260206004820152602f60248201527f416363657373436f6e74726f6c3a2063616e206f6e6c792072656e6f756e636560448201527f20726f6c657320666f722073656c6600000000000000000000000000000000006064820152608401610839565b610b688282611519565b5050565b7f9f2df0fed2c77648de5860a4cc508cd0818c85b8b8a1ab4ceeef8d981c8956a6610b9681611027565b610ba882610ba3600d5490565b611598565b610b68600d80546001019055565b6108da83838360405180602001604052806000815250610ec7565b610bda336108e4565b610c3d5760405162461bcd60e51b815260206004820152602e60248201527f4552433732313a2063616c6c6572206973206e6f7420746f6b656e206f776e6560448201526d1c881b9bdc88185c1c1c9bdd995960921b6064820152608401610839565b610c46816115b2565b50565b6000610c54600b5490565b8210610cc85760405162461bcd60e51b815260206004820152602c60248201527f455243373231456e756d657261626c653a20676c6f62616c20696e646578206f60448201527f7574206f6620626f756e647300000000000000000000000000000000000000006064820152608401610839565b600b8281548110610cdb57610cdb6128f8565b90600052602060002001549050919050565b6000610cf881611027565b610b68826115bb565b6000610d0c81611027565b610d178484846115ce565b604080518581526001600160a01b03851660208201526bffffffffffffffffffffffff84168183015290517f298accd521f9750586b5499be3cfaacadc0d60031f4cf81289328cb824905b229181900360600190a150505050565b6000818152600560205260408120546001600160a01b0316806106805760405162461bcd60e51b815260206004820152601860248201527f4552433732313a20696e76616c696420746f6b656e20494400000000000000006044820152606401610839565b7f9f2df0fed2c77648de5860a4cc508cd0818c85b8b8a1ab4ceeef8d981c8956a6610e0181611027565b610ba882610e0e600d5490565b6116e6565b60006001600160a01b038216610e915760405162461bcd60e51b815260206004820152602960248201527f4552433732313a2061646472657373207a65726f206973206e6f74206120766160448201527f6c6964206f776e657200000000000000000000000000000000000000000000006064820152608401610839565b506001600160a01b031660009081526006602052604090205490565b6060600480546106fe9061285e565b610b68338383611841565b610ed13383611217565b610f345760405162461bcd60e51b815260206004820152602e60248201527f4552433732313a2063616c6c6572206973206e6f7420746f6b656e206f776e6560448201526d1c881b9bdc88185c1c1c9bdd995960921b6064820152608401610839565b610f4084848484611910565b50505050565b6060610f5182611138565b6000610f5b61198e565b90506000815111610f7b5760405180602001604052806000815250610fa6565b80610f8584611a28565b604051602001610f9692919061290e565b6040516020818303038152906040525b9392505050565b600082815260208190526040902060010154610fc881611027565b6108da8383611519565b60007f9f2df0fed2c77648de5860a4cc508cd0818c85b8b8a1ab4ceeef8d981c8956a6610ffe81611027565b600d54915061100c84610b6c565b5092915050565b80546001019055565b600061068082611b26565b610c468133611b64565b6127106bffffffffffffffffffffffff821611156110a45760405162461bcd60e51b815260206004820152602a60248201527f455243323938313a20726f79616c7479206665652077696c6c206578636565646044820152692073616c65507269636560b01b6064820152608401610839565b6001600160a01b0382166110fa5760405162461bcd60e51b815260206004820152601960248201527f455243323938313a20696e76616c6964207265636569766572000000000000006044820152606401610839565b604080518082019091526001600160a01b039092168083526bffffffffffffffffffffffff9091166020909201829052600160a01b90910217600155565b6000818152600560205260409020546001600160a01b0316610c465760405162461bcd60e51b815260206004820152601860248201527f4552433732313a20696e76616c696420746f6b656e20494400000000000000006044820152606401610839565b6000818152600760205260409020805473ffffffffffffffffffffffffffffffffffffffff19166001600160a01b03841690811790915581906111de82610d72565b6001600160a01b03167f8c5be1e5ebec7d5bd14f71427d1e84f3dd0314c0f7b2291e5b200ac8c7c3b92560405160405180910390a45050565b60008061122383610d72565b9050806001600160a01b0316846001600160a01b0316148061126a57506001600160a01b0380821660009081526008602090815260408083209388168352929052205460ff165b8061128e5750836001600160a01b031661128384610781565b6001600160a01b0316145b949350505050565b826001600160a01b03166112a982610d72565b6001600160a01b0316146113255760405162461bcd60e51b815260206004820152602560248201527f4552433732313a207472616e736665722066726f6d20696e636f72726563742060448201527f6f776e65720000000000000000000000000000000000000000000000000000006064820152608401610839565b6001600160a01b0382166113a05760405162461bcd60e51b8152602060048201526024808201527f4552433732313a207472616e7366657220746f20746865207a65726f2061646460448201527f72657373000000000000000000000000000000000000000000000000000000006064820152608401610839565b6113ab838383611be2565b6113b660008261119c565b6001600160a01b03831660009081526006602052604081208054600192906113df90849061293d565b90915550506001600160a01b038216600090815260066020526040812080546001929061140d908490612954565b9091555050600081815260056020526040808220805473ffffffffffffffffffffffffffffffffffffffff19166001600160a01b0386811691821790925591518493918716917fddf252ad1be2c89b69c2b068fc378daa952ba7f163c4a11628f55a4df523b3ef91a4505050565b6000828152602081815260408083206001600160a01b038516845290915290205460ff16610b68576000828152602081815260408083206001600160a01b03851684529091529020805460ff191660011790556114d53390565b6001600160a01b0316816001600160a01b0316837f2f8788117e7eff1d82e926ec794901d17c78024a50270940304540a733656f0d60405160405180910390a45050565b6000828152602081815260408083206001600160a01b038516845290915290205460ff1615610b68576000828152602081815260408083206001600160a01b0385168085529252808320805460ff1916905551339285917ff6391f5c32d9c69d2a47ea670b442974b53935d1edc7fd64eb21e047a839171b9190a45050565b610b68828260405180602001604052806000815250611bed565b610c4681611c6b565b8051610b6890600e9060208401906123ea565b6127106bffffffffffffffffffffffff821611156116415760405162461bcd60e51b815260206004820152602a60248201527f455243323938313a20726f79616c7479206665652077696c6c206578636565646044820152692073616c65507269636560b01b6064820152608401610839565b6001600160a01b0382166116975760405162461bcd60e51b815260206004820152601b60248201527f455243323938313a20496e76616c696420706172616d657465727300000000006044820152606401610839565b6040805180820182526001600160a01b0393841681526bffffffffffffffffffffffff92831660208083019182526000968752600290529190942093519051909116600160a01b029116179055565b6001600160a01b03821661173c5760405162461bcd60e51b815260206004820181905260248201527f4552433732313a206d696e7420746f20746865207a65726f20616464726573736044820152606401610839565b6000818152600560205260409020546001600160a01b0316156117a15760405162461bcd60e51b815260206004820152601c60248201527f4552433732313a20746f6b656e20616c7265616479206d696e746564000000006044820152606401610839565b6117ad60008383611be2565b6001600160a01b03821660009081526006602052604081208054600192906117d6908490612954565b9091555050600081815260056020526040808220805473ffffffffffffffffffffffffffffffffffffffff19166001600160a01b03861690811790915590518392907fddf252ad1be2c89b69c2b068fc378daa952ba7f163c4a11628f55a4df523b3ef908290a45050565b816001600160a01b0316836001600160a01b031614156118a35760405162461bcd60e51b815260206004820152601960248201527f4552433732313a20617070726f766520746f2063616c6c6572000000000000006044820152606401610839565b6001600160a01b03838116600081815260086020908152604080832094871680845294825291829020805460ff191686151590811790915591519182527f17307eab39ab6107e8899845ad3d59bd9653f200f220920489ca2b5937696c31910160405180910390a3505050565b61191b848484611296565b61192784848484611c85565b610f405760405162461bcd60e51b815260206004820152603260248201527f4552433732313a207472616e7366657220746f206e6f6e20455243373231526560448201527131b2b4bb32b91034b6b83632b6b2b73a32b960711b6064820152608401610839565b6060611a23600e80546119a09061285e565b80601f01602080910402602001604051908101604052809291908181526020018280546119cc9061285e565b8015611a195780601f106119ee57610100808354040283529160200191611a19565b820191906000526020600020905b8154815290600101906020018083116119fc57829003601f168201915b5050505050611ddd565b905090565b606081611a4c5750506040805180820190915260018152600360fc1b602082015290565b8160005b8115611a765780611a608161296c565b9150611a6f9050600a836128e4565b9150611a50565b60008167ffffffffffffffff811115611a9157611a9161266b565b6040519080825280601f01601f191660200182016040528015611abb576020820181803683370190505b5090505b841561128e57611ad060018361293d565b9150611add600a86612987565b611ae8906030612954565b60f81b818381518110611afd57611afd6128f8565b60200101906001600160f81b031916908160001a905350611b1f600a866128e4565b9450611abf565b60006001600160e01b031982167f780e9d63000000000000000000000000000000000000000000000000000000001480610680575061068082611e12565b6000828152602081815260408083206001600160a01b038516845290915290205460ff16610b6857611ba0816001600160a01b03166014611e84565b611bab836020611e84565b604051602001611bbc92919061299b565b60408051601f198184030181529082905262461bcd60e51b825261083991600401612579565b6108da838383612049565b611bf783836116e6565b611c046000848484611c85565b6108da5760405162461bcd60e51b815260206004820152603260248201527f4552433732313a207472616e7366657220746f206e6f6e20455243373231526560448201527131b2b4bb32b91034b6b83632b6b2b73a32b960711b6064820152608401610839565b611c7481612101565b600090815260026020526040812055565b60006001600160a01b0384163b15611dd257604051630a85bd0160e11b81526001600160a01b0385169063150b7a0290611cc9903390899088908890600401612a1c565b602060405180830381600087803b158015611ce357600080fd5b505af1925050508015611d13575060408051601f3d908101601f19168201909252611d1091810190612a58565b60015b611db8573d808015611d41576040519150601f19603f3d011682016040523d82523d6000602084013e611d46565b606091505b508051611db05760405162461bcd60e51b815260206004820152603260248201527f4552433732313a207472616e7366657220746f206e6f6e20455243373231526560448201527131b2b4bb32b91034b6b83632b6b2b73a32b960711b6064820152608401610839565b805181602001fd5b6001600160e01b031916630a85bd0160e11b14905061128e565b506001949350505050565b606081611deb306014611e84565b604051602001611dfc929190612a75565b6040516020818303038152906040529050919050565b60006001600160e01b031982167f80ac58cd000000000000000000000000000000000000000000000000000000001480611e7557506001600160e01b031982167f5b5e139f00000000000000000000000000000000000000000000000000000000145b806106805750610680826121b5565b60606000611e938360026128af565b611e9e906002612954565b67ffffffffffffffff811115611eb657611eb661266b565b6040519080825280601f01601f191660200182016040528015611ee0576020820181803683370190505b509050600360fc1b81600081518110611efb57611efb6128f8565b60200101906001600160f81b031916908160001a9053507f780000000000000000000000000000000000000000000000000000000000000081600181518110611f4657611f466128f8565b60200101906001600160f81b031916908160001a9053506000611f6a8460026128af565b611f75906001612954565b90505b6001811115611ffa577f303132333435363738396162636465660000000000000000000000000000000085600f1660108110611fb657611fb66128f8565b1a60f81b828281518110611fcc57611fcc6128f8565b60200101906001600160f81b031916908160001a90535060049490941c93611ff381612ad6565b9050611f78565b508315610fa65760405162461bcd60e51b815260206004820181905260248201527f537472696e67733a20686578206c656e67746820696e73756666696369656e746044820152606401610839565b6001600160a01b0383166120a45761209f81600b80546000838152600c60205260408120829055600182018355919091527f0175b7a638427703f0dbe7bb9bbf987a2551717b34e79f33b5b1008d1fa01db90155565b6120c7565b816001600160a01b0316836001600160a01b0316146120c7576120c783826121f3565b6001600160a01b0382166120de576108da81612290565b826001600160a01b0316826001600160a01b0316146108da576108da828261233f565b600061210c82610d72565b905061211a81600084611be2565b61212560008361119c565b6001600160a01b038116600090815260066020526040812080546001929061214e90849061293d565b9091555050600082815260056020526040808220805473ffffffffffffffffffffffffffffffffffffffff19169055518391906001600160a01b038416907fddf252ad1be2c89b69c2b068fc378daa952ba7f163c4a11628f55a4df523b3ef908390a45050565b60006001600160e01b031982167f2a55205a000000000000000000000000000000000000000000000000000000001480610680575061068082612383565b6000600161220084610e13565b61220a919061293d565b6000838152600a602052604090205490915080821461225d576001600160a01b03841660009081526009602090815260408083208584528252808320548484528184208190558352600a90915290208190555b506000918252600a602090815260408084208490556001600160a01b039094168352600981528383209183525290812055565b600b546000906122a29060019061293d565b6000838152600c6020526040812054600b80549394509092849081106122ca576122ca6128f8565b9060005260206000200154905080600b83815481106122eb576122eb6128f8565b6000918252602080832090910192909255828152600c9091526040808220849055858252812055600b80548061232357612323612aed565b6001900381819060005260206000200160009055905550505050565b600061234a83610e13565b6001600160a01b0390931660009081526009602090815260408083208684528252808320859055938252600a9052919091209190915550565b60006001600160e01b031982167f7965db0b00000000000000000000000000000000000000000000000000000000148061068057507f01ffc9a7000000000000000000000000000000000000000000000000000000006001600160e01b0319831614610680565b8280546123f69061285e565b90600052602060002090601f016020900481019282612418576000855561245e565b82601f1061243157805160ff191683800117855561245e565b8280016001018555821561245e579182015b8281111561245e578251825591602001919060010190612443565b5061246a92915061246e565b5090565b5b8082111561246a576000815560010161246f565b6001600160e01b031981168114610c4657600080fd5b6000602082840312156124ab57600080fd5b8135610fa681612483565b80356001600160a01b03811681146124cd57600080fd5b919050565b80356bffffffffffffffffffffffff811681146124cd57600080fd5b6000806040838503121561250157600080fd5b61250a836124b6565b9150612518602084016124d2565b90509250929050565b60005b8381101561253c578181015183820152602001612524565b83811115610f405750506000910152565b60008151808452612565816020860160208601612521565b601f01601f19169290920160200192915050565b602081526000610fa6602083018461254d565b60006020828403121561259e57600080fd5b5035919050565b600080604083850312156125b857600080fd5b6125c1836124b6565b946020939093013593505050565b6000806000606084860312156125e457600080fd5b6125ed846124b6565b92506125fb602085016124b6565b9150604084013590509250925092565b6000806040838503121561261e57600080fd5b50508035926020909101359150565b6000806040838503121561264057600080fd5b82359150612518602084016124b6565b60006020828403121561266257600080fd5b610fa6826124b6565b634e487b7160e01b600052604160045260246000fd5b600067ffffffffffffffff8084111561269c5761269c61266b565b604051601f8501601f19908116603f011681019082821181831017156126c4576126c461266b565b816040528093508581528686860111156126dd57600080fd5b858560208301376000602087830101525050509392505050565b60006020828403121561270957600080fd5b813567ffffffffffffffff81111561272057600080fd5b8201601f8101841361273157600080fd5b61128e84823560208401612681565b60008060006060848603121561275557600080fd5b83359250612765602085016124b6565b9150612773604085016124d2565b90509250925092565b6000806040838503121561278f57600080fd5b612798836124b6565b9150602083013580151581146127ad57600080fd5b809150509250929050565b600080600080608085870312156127ce57600080fd5b6127d7856124b6565b93506127e5602086016124b6565b925060408501359150606085013567ffffffffffffffff81111561280857600080fd5b8501601f8101871361281957600080fd5b61282887823560208401612681565b91505092959194509250565b6000806040838503121561284757600080fd5b612850836124b6565b9150612518602084016124b6565b600181811c9082168061287257607f821691505b6020821081141561289357634e487b7160e01b600052602260045260246000fd5b50919050565b634e487b7160e01b600052601160045260246000fd5b60008160001904831182151516156128c9576128c9612899565b500290565b634e487b7160e01b600052601260045260246000fd5b6000826128f3576128f36128ce565b500490565b634e487b7160e01b600052603260045260246000fd5b60008351612920818460208801612521565b835190830190612934818360208801612521565b01949350505050565b60008282101561294f5761294f612899565b500390565b6000821982111561296757612967612899565b500190565b600060001982141561298057612980612899565b5060010190565b600082612996576129966128ce565b500690565b7f416363657373436f6e74726f6c3a206163636f756e74200000000000000000008152600083516129d3816017850160208801612521565b7f206973206d697373696e6720726f6c65200000000000000000000000000000006017918401918201528351612a10816028840160208801612521565b01602801949350505050565b60006001600160a01b03808716835280861660208401525083604083015260806060830152612a4e608083018461254d565b9695505050505050565b600060208284031215612a6a57600080fd5b8151610fa681612483565b60008351612a87818460208801612521565b80830190507f2f000000000000000000000000000000000000000000000000000000000000008082528451612ac3816001850160208901612521565b6001920191820152600201949350505050565b600081612ae557612ae5612899565b506000190190565b634e487b7160e01b600052603160045260246000fdfea26469706673582212204c28816f4222eebf09ffb8b1823dba2a2b98457e186e66e383de3d5b2e94713e64736f6c63430008090033",
  "linkReferences": {},
  "deployedLinkReferences": {}
}